{
  "contractName": "ElectionFactory",
  "abi": [
    {
      "anonymous": false,
      "inputs": [
        {
          "indexed": false,
          "internalType": "address",
          "name": "",
          "type": "address"
        }
      ],
      "name": "ElectionCreated",
      "type": "event"
    },
    {
      "inputs": [
        {
          "internalType": "uint256",
          "name": "",
          "type": "uint256"
        }
      ],
      "name": "elections",
      "outputs": [
        {
          "internalType": "contract Election",
          "name": "",
          "type": "address"
        }
      ],
      "stateMutability": "view",
      "type": "function",
      "constant": true
    },
    {
      "inputs": [
        {
          "internalType": "bytes32",
          "name": "electionName",
          "type": "bytes32"
        },
        {
          "internalType": "uint256",
          "name": "endTimeInEpochS",
          "type": "uint256"
        }
      ],
      "name": "hostNewElection",
      "outputs": [],
      "stateMutability": "nonpayable",
      "type": "function"
    },
    {
      "inputs": [],
      "name": "getElections",
      "outputs": [
        {
          "internalType": "bytes32[]",
          "name": "",
          "type": "bytes32[]"
        },
        {
          "internalType": "contract Election[]",
          "name": "",
          "type": "address[]"
        }
      ],
      "stateMutability": "view",
      "type": "function",
      "constant": true
    }
  ],
  "bytecode": "0x608060405234801561001057600080fd5b5061183a806100206000396000f3fe608060405234801561001057600080fd5b50600436106100415760003560e01c80635e6fef011461004657806389b935181461009e5780639f3a7f52146100d6575b600080fd5b6100726004803603602081101561005c57600080fd5b810190808035906020019092919050505061017d565b604051808273ffffffffffffffffffffffffffffffffffffffff16815260200191505060405180910390f35b6100d4600480360360408110156100b457600080fd5b8101908080359060200190929190803590602001909291905050506101bc565b005b6100de61036d565b604051808060200180602001838103835285818151815260200191508051906020019060200280838360005b8381101561012557808201518184015260208101905061010a565b50505050905001838103825284818151815260200191508051906020019060200280838360005b8381101561016757808201518184015260208101905061014c565b5050505090500194505050505060405180910390f35b6000818154811061018d57600080fd5b906000526020600020016000915054906101000a900473ffffffffffffffffffffffffffffffffffffffff1681565b600082826040516101cc90610456565b8083815260200182815260200192505050604051809103906000f0801580156101f9573d6000803e3d6000fd5b50905060018390806001815401808255809150506001900390600052602060002001600090919091909150558073ffffffffffffffffffffffffffffffffffffffff1663f2fde38b336040518263ffffffff1660e01b8152600401808273ffffffffffffffffffffffffffffffffffffffff168152602001915050600060405180830381600087803b15801561028e57600080fd5b505af11580156102a2573d6000803e3d6000fd5b505050506000819080600181540180825580915050600190039060005260206000200160009091909190916101000a81548173ffffffffffffffffffffffffffffffffffffffff021916908373ffffffffffffffffffffffffffffffffffffffff1602179055506002600081548092919060010191905055507f3bf25a9dfa34d3f99eec4217177ec490f7a345ee390de1e739e9c816a37122f081604051808273ffffffffffffffffffffffffffffffffffffffff16815260200191505060405180910390a1505050565b60608060016000818054806020026020016040519081016040528092919081815260200182805480156103bf57602002820191906000526020600020905b8154815260200190600101908083116103ab575b505050505091508080548060200260200160405190810160405280929190818152602001828054801561044757602002820191906000526020600020905b8160009054906101000a900473ffffffffffffffffffffffffffffffffffffffff1673ffffffffffffffffffffffffffffffffffffffff16815260200190600101908083116103fd575b50505050509050915091509091565b6113a1806104648339019056fe608060405234801561001057600080fd5b506040516113a13803806113a18339818101604052604081101561003357600080fd5b8101908080519060200190929190805190602001909291905050508042106100c3576040517f08c379a000000000000000000000000000000000000000000000000000000000815260040180806020018281038252601f8152602001807f456c656374696f6e206d75737420656e6420696e20746865206675747572650081525060200191505060405180910390fd5b6000600460146101000a81548160ff021916908360028111156100e257fe5b0217905550336000806101000a81548173ffffffffffffffffffffffffffffffffffffffff021916908373ffffffffffffffffffffffffffffffffffffffff1602179055508160058190555080600681905550505061125b806101466000396000f3fe608060405234801561001057600080fd5b50600436106100f55760003560e01c80636dd7d8ea11610097578063d8bff5a511610066578063d8bff5a51461031c578063dfbf53ae14610374578063ede2de37146103a8578063f2fde38b146103ec576100f5565b80636dd7d8ea1461026657806385e8e7a7146102aa5780638da5cb5b146102c85780639d9a462c146102fc576100f5565b80632280043d116100d35780632280043d146101d15780633477ee2e146101fa57806359f784681461025257806362d73eb81461025c576100f5565b806306a49fce146100fa57806319004ff7146101595780631913808b14610177575b600080fd5b610102610430565b6040518080602001828103825283818151815260200191508051906020019060200280838360005b8381101561014557808201518184015260208101905061012a565b505050509050019250505060405180910390f35b6101616104be565b6040518082815260200191505060405180910390f35b6101b96004803603602081101561018d57600080fd5b81019080803573ffffffffffffffffffffffffffffffffffffffff1690602001909291905050506104c4565b60405180821515815260200191505060405180910390f35b6101d96104e4565b604051808260028111156101e957fe5b815260200191505060405180910390f35b6102266004803603602081101561021057600080fd5b81019080803590602001909291905050506104f7565b604051808273ffffffffffffffffffffffffffffffffffffffff16815260200191505060405180910390f35b61025a610536565b005b61026461072f565b005b6102a86004803603602081101561027c57600080fd5b81019080803573ffffffffffffffffffffffffffffffffffffffff1690602001909291905050506108fa565b005b6102b2610bf1565b6040518082815260200191505060405180910390f35b6102d0610bf7565b604051808273ffffffffffffffffffffffffffffffffffffffff16815260200191505060405180910390f35b610304610c1b565b60405180821515815260200191505060405180910390f35b61035e6004803603602081101561033257600080fd5b81019080803573ffffffffffffffffffffffffffffffffffffffff169060200190929190505050610c28565b6040518082815260200191505060405180910390f35b61037c610c40565b604051808273ffffffffffffffffffffffffffffffffffffffff16815260200191505060405180910390f35b6103ea600480360360208110156103be57600080fd5b81019080803573ffffffffffffffffffffffffffffffffffffffff169060200190929190505050610c66565b005b61042e6004803603602081101561040257600080fd5b81019080803573ffffffffffffffffffffffffffffffffffffffff169060200190929190505050610ef6565b005b606060028054806020026020016040519081016040528092919081815260200182805480156104b457602002820191906000526020600020905b8160009054906101000a900473ffffffffffffffffffffffffffffffffffffffff1673ffffffffffffffffffffffffffffffffffffffff168152602001906001019080831161046a575b5050505050905090565b60065481565b60036020528060005260406000206000915054906101000a900460ff1681565b600460149054906101000a900460ff1681565b6002818154811061050757600080fd5b906000526020600020016000915054906101000a900473ffffffffffffffffffffffffffffffffffffffff1681565b60008054906101000a900473ffffffffffffffffffffffffffffffffffffffff1673ffffffffffffffffffffffffffffffffffffffff163373ffffffffffffffffffffffffffffffffffffffff16146105da576040517f08c379a00000000000000000000000000000000000000000000000000000000081526004018080602001828103825260238152602001806111b36023913960400191505060405180910390fd5b600654421015610652576040517f08c379a00000000000000000000000000000000000000000000000000000000081526004018080602001828103825260168152602001807f456c656374696f6e20686173206e6f7420656e6465640000000000000000000081525060200191505060405180910390fd5b6002600460146101000a81548160ff0219169083600281111561067157fe5b021790555061067e610fdd565b600460006101000a81548173ffffffffffffffffffffffffffffffffffffffff021916908373ffffffffffffffffffffffffffffffffffffffff1602179055507f05a88ee4bcd4ae62631fb7029f70fec14ed2e41886b3b9d204ecb778c0162644600460009054906101000a900473ffffffffffffffffffffffffffffffffffffffff16604051808273ffffffffffffffffffffffffffffffffffffffff16815260200191505060405180910390a1565b60008054906101000a900473ffffffffffffffffffffffffffffffffffffffff1673ffffffffffffffffffffffffffffffffffffffff163373ffffffffffffffffffffffffffffffffffffffff16146107d3576040517f08c379a00000000000000000000000000000000000000000000000000000000081526004018080602001828103825260238152602001806111b36023913960400191505060405180910390fd5b600654421061084a576040517f08c379a000000000000000000000000000000000000000000000000000000000815260040180806020018281038252601a8152602001807f456c656374696f6e207374696c6c20696e2070726f677265737300000000000081525060200191505060405180910390fd5b6001600280549050116108a8576040517f08c379a000000000000000000000000000000000000000000000000000000000815260040180806020018281038252602b8152602001806111fb602b913960400191505060405180910390fd5b6001600460146101000a81548160ff021916908360028111156108c757fe5b02179055507fc475c26aa25ed8e85a7faa790e5f63b5d7ee1025f12821f4c9bfddd36ab4d11260405160405180910390a1565b600360003373ffffffffffffffffffffffffffffffffffffffff1673ffffffffffffffffffffffffffffffffffffffff16815260200190815260200160002060009054906101000a900460ff16156109ba576040517f08c379a00000000000000000000000000000000000000000000000000000000081526004018080602001828103825260198152602001807f416464726573732068617320616c726561647920766f7465640000000000000081525060200191505060405180910390fd5b6006544210610a31576040517f08c379a000000000000000000000000000000000000000000000000000000000815260040180806020018281038252601a8152602001807f456c656374696f6e207374696c6c20696e2070726f677265737300000000000081525060200191505060405180910390fd5b60016002811115610a3e57fe5b600460149054906101000a900460ff166002811115610a5957fe5b14610aaf576040517f08c379a00000000000000000000000000000000000000000000000000000000081526004018080602001828103825260258152602001806111d66025913960400191505060405180910390fd5b60018060008373ffffffffffffffffffffffffffffffffffffffff1673ffffffffffffffffffffffffffffffffffffffff1681526020019081526020016000206000828254019250508190555060006003905060018160003373ffffffffffffffffffffffffffffffffffffffff1673ffffffffffffffffffffffffffffffffffffffff16815260200190815260200160002060006101000a81548160ff0219169083151502179055507f86de0aca069f1a6dc2be8e20dc653c27a4677e78c233e85a753f2a95d807c29d82600160008573ffffffffffffffffffffffffffffffffffffffff1673ffffffffffffffffffffffffffffffffffffffff16815260200190815260200160002054604051808373ffffffffffffffffffffffffffffffffffffffff1681526020018281526020019250505060405180910390a15050565b60055481565b60008054906101000a900473ffffffffffffffffffffffffffffffffffffffff1681565b6000600654421015905090565b60016020528060005260406000206000915090505481565b600460009054906101000a900473ffffffffffffffffffffffffffffffffffffffff1681565b60006002811115610c7357fe5b600460149054906101000a900460ff166002811115610c8e57fe5b14610c9857600080fd5b60008054906101000a900473ffffffffffffffffffffffffffffffffffffffff1673ffffffffffffffffffffffffffffffffffffffff163373ffffffffffffffffffffffffffffffffffffffff1614610d3c576040517f08c379a00000000000000000000000000000000000000000000000000000000081526004018080602001828103825260238152602001806111b36023913960400191505060405180910390fd5b60008054906101000a900473ffffffffffffffffffffffffffffffffffffffff1673ffffffffffffffffffffffffffffffffffffffff168173ffffffffffffffffffffffffffffffffffffffff161415610dfe576040517f08c379a000000000000000000000000000000000000000000000000000000000815260040180806020018281038252601a8152602001807f4f776e65722063616e6e6f74206e6f6d696e6174652073656c6600000000000081525060200191505060405180910390fd5b6000600160008373ffffffffffffffffffffffffffffffffffffffff1673ffffffffffffffffffffffffffffffffffffffff168152602001908152602001600020819055506002819080600181540180825580915050600190039060005260206000200160009091909190916101000a81548173ffffffffffffffffffffffffffffffffffffffff021916908373ffffffffffffffffffffffffffffffffffffffff1602179055507f42c310717a0e686ac2b6fac71a00ab4cea3895f9935f256caa0c7faf1dd8815781604051808273ffffffffffffffffffffffffffffffffffffffff16815260200191505060405180910390a150565b60008054906101000a900473ffffffffffffffffffffffffffffffffffffffff1673ffffffffffffffffffffffffffffffffffffffff163373ffffffffffffffffffffffffffffffffffffffff1614610f9a576040517f08c379a00000000000000000000000000000000000000000000000000000000081526004018080602001828103825260238152602001806111b36023913960400191505060405180910390fd5b806000806101000a81548173ffffffffffffffffffffffffffffffffffffffff021916908373ffffffffffffffffffffffffffffffffffffffff16021790555050565b6000600654421015611057576040517f08c379a00000000000000000000000000000000000000000000000000000000081526004018080602001828103825260168152602001807f456c656374696f6e20686173206e6f7420656e6465640000000000000000000081525060200191505060405180910390fd5b60008060005b6002805490508110156111a95781600160006002848154811061107c57fe5b9060005260206000200160009054906101000a900473ffffffffffffffffffffffffffffffffffffffff1673ffffffffffffffffffffffffffffffffffffffff1673ffffffffffffffffffffffffffffffffffffffff16815260200190815260200160002054111561119c5760016000600283815481106110f957fe5b9060005260206000200160009054906101000a900473ffffffffffffffffffffffffffffffffffffffff1673ffffffffffffffffffffffffffffffffffffffff1673ffffffffffffffffffffffffffffffffffffffff1681526020019081526020016000205491506002818154811061116e57fe5b9060005260206000200160009054906101000a900473ffffffffffffffffffffffffffffffffffffffff1692505b808060010191505061105d565b5081925050509056fe4f6e6c7920746865206f776e6572206d617920657865637574652066756e6374696f6e456c656374696f6e2069732063757272656e746c79206e6f7420696e2070726f6772657373416e20656c656374696f6e206d7573742068617665206174206c6561737420322063616e64696461746573a2646970667358221220efa99a269ebb6d43bc54bce7e4c9a9286338162d6d17d92dbfc277e32ce9b48964736f6c63430007040033a264697066735822122028917048022e233f72817a2f39e0f2d93a8a262030a32a0fc4b923472cbaca7d64736f6c63430007040033",
  "immutableReferences": {},
  "source": "pragma solidity >=0.7.0 <0.8.0;\n\nimport \"./Election.sol\";\n\ncontract ElectionFactory {\n    Election[] public elections;\n    bytes32[] electionNames;\n    uint256 numElections;\n\n    event ElectionCreated(address);\n\n    function hostNewElection(bytes32 electionName, uint256 endTimeInEpochS)\n        external\n    {\n        Election newElection = new Election(electionName, endTimeInEpochS);\n        electionNames.push(electionName);\n        newElection.transferOwnership(msg.sender);\n        elections.push(newElection);\n        numElections++;\n        emit ElectionCreated(address(newElection));\n    }\n\n    function getElections() external view returns (bytes32[] memory, Election[] memory) {\n        return (electionNames, elections);\n    }\n}\n",
  "sourcePath": "/Users/cds95/Documents/voting-dapp/contracts/ElectionFactory.sol",
  "compiler": {
    "name": "solc",
    "version": "0.7.4+commit.3f05b770.Emscripten.clang"
  },
  "schemaVersion": "3.3.2",
  "updatedAt": "2021-02-06T22:43:58.249Z",
  "networkType": "ethereum",
  "devdoc": {
    "kind": "dev",
    "methods": {},
    "version": 1
  },
  "userdoc": {
    "kind": "user",
    "methods": {},
    "version": 1
  }
}