{
  "contractName": "Election",
  "abi": [
    {
      "inputs": [],
      "stateMutability": "nonpayable",
      "type": "constructor"
    },
    {
      "inputs": [
        {
          "internalType": "address",
          "name": "",
          "type": "address"
        }
      ],
      "name": "electionParticipants",
      "outputs": [
        {
          "internalType": "bool",
          "name": "",
          "type": "bool"
        }
      ],
      "stateMutability": "view",
      "type": "function"
    },
    {
      "inputs": [],
      "name": "electionState",
      "outputs": [
        {
          "internalType": "enum Election.ElectionState",
          "name": "",
          "type": "uint8"
        }
      ],
      "stateMutability": "view",
      "type": "function"
    },
    {
      "inputs": [],
      "name": "owner",
      "outputs": [
        {
          "internalType": "address",
          "name": "",
          "type": "address"
        }
      ],
      "stateMutability": "view",
      "type": "function"
    },
    {
      "inputs": [
        {
          "internalType": "address",
          "name": "",
          "type": "address"
        }
      ],
      "name": "votes",
      "outputs": [
        {
          "internalType": "uint256",
          "name": "",
          "type": "uint256"
        }
      ],
      "stateMutability": "view",
      "type": "function"
    },
    {
      "inputs": [],
      "name": "winner",
      "outputs": [
        {
          "internalType": "address",
          "name": "",
          "type": "address"
        }
      ],
      "stateMutability": "view",
      "type": "function"
    },
    {
      "inputs": [
        {
          "internalType": "address",
          "name": "_owner",
          "type": "address"
        }
      ],
      "name": "init",
      "outputs": [],
      "stateMutability": "nonpayable",
      "type": "function"
    },
    {
      "inputs": [
        {
          "internalType": "address",
          "name": "_candidate",
          "type": "address"
        }
      ],
      "name": "nominateCandidate",
      "outputs": [],
      "stateMutability": "nonpayable",
      "type": "function"
    },
    {
      "inputs": [],
      "name": "startElection",
      "outputs": [],
      "stateMutability": "nonpayable",
      "type": "function"
    },
    {
      "inputs": [],
      "name": "endElection",
      "outputs": [],
      "stateMutability": "nonpayable",
      "type": "function"
    },
    {
      "inputs": [
        {
          "internalType": "address",
          "name": "_candidate",
          "type": "address"
        }
      ],
      "name": "vote",
      "outputs": [],
      "stateMutability": "nonpayable",
      "type": "function"
    }
  ],
  "bytecode": "0x608060405234801561001057600080fd5b506000600360146101000a81548160ff0219169083600281111561003057fe5b02179055506108db806100446000396000f3fe608060405234801561001057600080fd5b506004361061009e5760003560e01c80636dd7d8ea116100665780636dd7d8ea1461017e5780638da5cb5b146101c2578063d8bff5a5146101f6578063dfbf53ae1461024e578063ede2de37146102825761009e565b80631913808b146100a357806319ab453c146100fd5780632280043d1461014157806359f784681461016a57806362d73eb814610174575b600080fd5b6100e5600480360360208110156100b957600080fd5b81019080803573ffffffffffffffffffffffffffffffffffffffff1690602001909291905050506102c6565b60405180821515815260200191505060405180910390f35b61013f6004803603602081101561011357600080fd5b81019080803573ffffffffffffffffffffffffffffffffffffffff1690602001909291905050506102e6565b005b610149610329565b6040518082600281111561015957fe5b815260200191505060405180910390f35b61017261033c565b005b61017c610408565b005b6101c06004803603602081101561019457600080fd5b81019080803573ffffffffffffffffffffffffffffffffffffffff1690602001909291905050506104d4565b005b6101ca61063e565b604051808273ffffffffffffffffffffffffffffffffffffffff16815260200191505060405180910390f35b6102386004803603602081101561020c57600080fd5b81019080803573ffffffffffffffffffffffffffffffffffffffff169060200190929190505050610662565b6040518082815260200191505060405180910390f35b61025661067a565b604051808273ffffffffffffffffffffffffffffffffffffffff16815260200191505060405180910390f35b6102c46004803603602081101561029857600080fd5b81019080803573ffffffffffffffffffffffffffffffffffffffff1690602001909291905050506106a0565b005b60026020528060005260406000206000915054906101000a900460ff1681565b806000806101000a81548173ffffffffffffffffffffffffffffffffffffffff021916908373ffffffffffffffffffffffffffffffffffffffff16021790555050565b600360149054906101000a900460ff1681565b3360008054906101000a900473ffffffffffffffffffffffffffffffffffffffff1673ffffffffffffffffffffffffffffffffffffffff168173ffffffffffffffffffffffffffffffffffffffff16146103e1576040517f08c379a00000000000000000000000000000000000000000000000000000000081526004018080602001828103825260238152602001806108836023913960400191505060405180910390fd5b6002600360146101000a81548160ff0219169083600281111561040057fe5b021790555050565b3360008054906101000a900473ffffffffffffffffffffffffffffffffffffffff1673ffffffffffffffffffffffffffffffffffffffff168173ffffffffffffffffffffffffffffffffffffffff16146104ad576040517f08c379a00000000000000000000000000000000000000000000000000000000081526004018080602001828103825260238152602001806108836023913960400191505060405180910390fd5b6001600360146101000a81548160ff021916908360028111156104cc57fe5b021790555050565b33600260008273ffffffffffffffffffffffffffffffffffffffff1673ffffffffffffffffffffffffffffffffffffffff16815260200190815260200160002060009054906101000a900460ff1615610595576040517f08c379a00000000000000000000000000000000000000000000000000000000081526004018080602001828103825260198152602001807f416464726573732068617320616c726561647920766f7465640000000000000081525060200191505060405180910390fd5b60018060008473ffffffffffffffffffffffffffffffffffffffff1673ffffffffffffffffffffffffffffffffffffffff168152602001908152602001600020600082825401925050819055506001600260003373ffffffffffffffffffffffffffffffffffffffff1673ffffffffffffffffffffffffffffffffffffffff16815260200190815260200160002060006101000a81548160ff0219169083151502179055505050565b60008054906101000a900473ffffffffffffffffffffffffffffffffffffffff1681565b60016020528060005260406000206000915090505481565b600360009054906101000a900473ffffffffffffffffffffffffffffffffffffffff1681565b600060028111156106ad57fe5b600360149054906101000a900460ff1660028111156106c857fe5b146106d257600080fd5b3360008054906101000a900473ffffffffffffffffffffffffffffffffffffffff1673ffffffffffffffffffffffffffffffffffffffff168173ffffffffffffffffffffffffffffffffffffffff1614610777576040517f08c379a00000000000000000000000000000000000000000000000000000000081526004018080602001828103825260238152602001806108836023913960400191505060405180910390fd5b60008054906101000a900473ffffffffffffffffffffffffffffffffffffffff1673ffffffffffffffffffffffffffffffffffffffff168273ffffffffffffffffffffffffffffffffffffffff161415610839576040517f08c379a000000000000000000000000000000000000000000000000000000000815260040180806020018281038252601a8152602001807f4f776e65722063616e6e6f74206e6f6d696e6174652073656c6600000000000081525060200191505060405180910390fd5b6000600160008473ffffffffffffffffffffffffffffffffffffffff1673ffffffffffffffffffffffffffffffffffffffff16815260200190815260200160002081905550505056fe4f6e6c7920746865206f776e6572206d617920657865637574652066756e6374696f6ea2646970667358221220e0afe640cba5b4c9f0b71501b4da2964a58df300fc6726d096b7009307b1af0464736f6c63430007040033",
  "immutableReferences": {},
  "source": "pragma solidity >=0.7.0 <0.8.0;\n\ncontract Election {\n    address public owner;\n    mapping(address => uint256) public votes;\n    mapping(address => bool) public electionParticipants;\n    address public winner;\n    ElectionState public electionState;\n\n    enum ElectionState {NOT_STARTED, IN_PROGRESS, ENDED}\n\n    modifier isOwner(address a) {\n        require(a == owner, \"Only the owner may execute function\");\n        _;\n    }\n\n    modifier notOwner(address a) {\n        require(a != owner, \"Owner cannot execute function\");\n        _;\n    }\n\n    modifier isElectionNotStarted() {\n        require(electionState == ElectionState.NOT_STARTED);\n        _;\n    }\n\n    modifier hasNotVoted(address a) {\n        require(!electionParticipants[a], \"Address has already voted\");\n        _;\n    }\n\n    constructor() {\n        electionState = ElectionState.NOT_STARTED;\n    }\n\n    function init(address _owner) external {\n        owner = _owner;\n    }\n\n    function nominateCandidate(address _candidate)\n        external\n        isElectionNotStarted\n        isOwner(msg.sender)\n    {\n        require(_candidate != owner, \"Owner cannot nominate self\");\n        votes[_candidate] = 0;\n    }\n\n    function startElection() external isOwner(msg.sender) {\n        electionState = ElectionState.IN_PROGRESS;\n    }\n\n    function endElection() external isOwner(msg.sender) {\n        electionState = ElectionState.ENDED;\n    }\n\n    function vote(address _candidate) external hasNotVoted(msg.sender) {\n        votes[_candidate] += 1;\n        electionParticipants[msg.sender] = true;\n    }\n}\n",
  "sourcePath": "/Users/cds95/Documents/voting-dapp/contracts/Election.sol",
  "compiler": {
    "name": "solc",
    "version": "0.7.4+commit.3f05b770.Emscripten.clang"
  },
  "schemaVersion": "3.3.2",
  "updatedAt": "2021-01-20T01:40:03.678Z",
  "devdoc": {
    "kind": "dev",
    "methods": {},
    "version": 1
  },
  "userdoc": {
    "kind": "user",
    "methods": {},
    "version": 1
  }
}