{
  "contractName": "Election",
  "abi": [
    {
      "inputs": [
        {
          "internalType": "string",
          "name": "_electionName",
          "type": "string"
        },
        {
          "internalType": "uint256",
          "name": "_endTimeInEpochS",
          "type": "uint256"
        }
      ],
      "stateMutability": "nonpayable",
      "type": "constructor"
    },
    {
      "anonymous": false,
      "inputs": [
        {
          "indexed": false,
          "internalType": "address",
          "name": "candidate",
          "type": "address"
        }
      ],
      "name": "CandidateNominated",
      "type": "event"
    },
    {
      "anonymous": false,
      "inputs": [
        {
          "indexed": false,
          "internalType": "address",
          "name": "winner",
          "type": "address"
        }
      ],
      "name": "ElectionEnded",
      "type": "event"
    },
    {
      "anonymous": false,
      "inputs": [],
      "name": "ElectionStarted",
      "type": "event"
    },
    {
      "anonymous": false,
      "inputs": [
        {
          "indexed": false,
          "internalType": "address",
          "name": "candidate",
          "type": "address"
        },
        {
          "indexed": false,
          "internalType": "uint256",
          "name": "voteCount",
          "type": "uint256"
        }
      ],
      "name": "VoteAdded",
      "type": "event"
    },
    {
      "inputs": [
        {
          "internalType": "uint256",
          "name": "",
          "type": "uint256"
        }
      ],
      "name": "candidates",
      "outputs": [
        {
          "internalType": "address",
          "name": "",
          "type": "address"
        }
      ],
      "stateMutability": "view",
      "type": "function"
    },
    {
      "inputs": [],
      "name": "electionName",
      "outputs": [
        {
          "internalType": "string",
          "name": "",
          "type": "string"
        }
      ],
      "stateMutability": "view",
      "type": "function"
    },
    {
      "inputs": [
        {
          "internalType": "address",
          "name": "",
          "type": "address"
        }
      ],
      "name": "electionParticipants",
      "outputs": [
        {
          "internalType": "bool",
          "name": "",
          "type": "bool"
        }
      ],
      "stateMutability": "view",
      "type": "function"
    },
    {
      "inputs": [],
      "name": "electionState",
      "outputs": [
        {
          "internalType": "enum Election.ElectionState",
          "name": "",
          "type": "uint8"
        }
      ],
      "stateMutability": "view",
      "type": "function"
    },
    {
      "inputs": [],
      "name": "owner",
      "outputs": [
        {
          "internalType": "address",
          "name": "",
          "type": "address"
        }
      ],
      "stateMutability": "view",
      "type": "function"
    },
    {
      "inputs": [
        {
          "internalType": "address",
          "name": "",
          "type": "address"
        }
      ],
      "name": "votes",
      "outputs": [
        {
          "internalType": "uint256",
          "name": "",
          "type": "uint256"
        }
      ],
      "stateMutability": "view",
      "type": "function"
    },
    {
      "inputs": [],
      "name": "winner",
      "outputs": [
        {
          "internalType": "address",
          "name": "",
          "type": "address"
        }
      ],
      "stateMutability": "view",
      "type": "function"
    },
    {
      "inputs": [
        {
          "internalType": "address",
          "name": "newOwner",
          "type": "address"
        }
      ],
      "name": "transferOwnership",
      "outputs": [],
      "stateMutability": "nonpayable",
      "type": "function"
    },
    {
      "inputs": [
        {
          "internalType": "address",
          "name": "_candidate",
          "type": "address"
        }
      ],
      "name": "nominateCandidate",
      "outputs": [],
      "stateMutability": "nonpayable",
      "type": "function"
    },
    {
      "inputs": [],
      "name": "startElection",
      "outputs": [],
      "stateMutability": "nonpayable",
      "type": "function"
    },
    {
      "inputs": [],
      "name": "endElection",
      "outputs": [],
      "stateMutability": "nonpayable",
      "type": "function"
    },
    {
      "inputs": [],
      "name": "hasElectionEnded",
      "outputs": [
        {
          "internalType": "bool",
          "name": "",
          "type": "bool"
        }
      ],
      "stateMutability": "view",
      "type": "function"
    },
    {
      "inputs": [
        {
          "internalType": "address",
          "name": "_candidate",
          "type": "address"
        }
      ],
      "name": "vote",
      "outputs": [],
      "stateMutability": "nonpayable",
      "type": "function"
    }
  ],
  "bytecode": "0x60806040523480156200001157600080fd5b50604051620013d5380380620013d5833981810160405260408110156200003757600080fd5b81019080805160405193929190846401000000008211156200005857600080fd5b838201915060208201858111156200006f57600080fd5b82518660018202830111640100000000821117156200008d57600080fd5b8083526020830192505050908051906020019080838360005b83811015620000c3578082015181840152602081019050620000a6565b50505050905090810190601f168015620000f15780820380516001836020036101000a031916815260200191505b50604052602001805190602001909291905050508042106200017b576040517f08c379a000000000000000000000000000000000000000000000000000000000815260040180806020018281038252601f8152602001807f456c656374696f6e206d75737420656e6420696e20746865206675747572650081525060200191505060405180910390fd5b6000600460146101000a81548160ff021916908360028111156200019b57fe5b0217905550336000806101000a81548173ffffffffffffffffffffffffffffffffffffffff021916908373ffffffffffffffffffffffffffffffffffffffff1602179055508160059080519060200190620001f892919062000208565b50806006819055505050620002be565b828054600181600116156101000203166002900490600052602060002090601f0160209004810192826200024057600085556200028c565b82601f106200025b57805160ff19168380011785556200028c565b828001600101855582156200028c579182015b828111156200028b5782518255916020019190600101906200026e565b5b5090506200029b91906200029f565b5090565b5b80821115620002ba576000816000905550600101620002a0565b5090565b61110780620002ce6000396000f3fe608060405234801561001057600080fd5b50600436106100cf5760003560e01c806385e8e7a71161008c578063d8bff5a511610066578063d8bff5a5146102de578063dfbf53ae14610336578063ede2de371461036a578063f2fde38b146103ae576100cf565b806385e8e7a7146102075780638da5cb5b1461028a5780639d9a462c146102be576100cf565b80631913808b146100d45780632280043d1461012e5780633477ee2e1461015757806359f78468146101af57806362d73eb8146101b95780636dd7d8ea146101c3575b600080fd5b610116600480360360208110156100ea57600080fd5b81019080803573ffffffffffffffffffffffffffffffffffffffff1690602001909291905050506103f2565b60405180821515815260200191505060405180910390f35b610136610412565b6040518082600281111561014657fe5b815260200191505060405180910390f35b6101836004803603602081101561016d57600080fd5b8101908080359060200190929190505050610425565b604051808273ffffffffffffffffffffffffffffffffffffffff16815260200191505060405180910390f35b6101b7610464565b005b6101c161065d565b005b610205600480360360208110156101d957600080fd5b81019080803573ffffffffffffffffffffffffffffffffffffffff1690602001909291905050506107b1565b005b61020f610a2a565b6040518080602001828103825283818151815260200191508051906020019080838360005b8381101561024f578082015181840152602081019050610234565b50505050905090810190601f16801561027c5780820380516001836020036101000a031916815260200191505b509250505060405180910390f35b610292610ac8565b604051808273ffffffffffffffffffffffffffffffffffffffff16815260200191505060405180910390f35b6102c6610aec565b60405180821515815260200191505060405180910390f35b610320600480360360208110156102f457600080fd5b81019080803573ffffffffffffffffffffffffffffffffffffffff169060200190929190505050610af9565b6040518082815260200191505060405180910390f35b61033e610b11565b604051808273ffffffffffffffffffffffffffffffffffffffff16815260200191505060405180910390f35b6103ac6004803603602081101561038057600080fd5b81019080803573ffffffffffffffffffffffffffffffffffffffff169060200190929190505050610b37565b005b6103f0600480360360208110156103c457600080fd5b81019080803573ffffffffffffffffffffffffffffffffffffffff169060200190929190505050610dc7565b005b60036020528060005260406000206000915054906101000a900460ff1681565b600460149054906101000a900460ff1681565b6002818154811061043557600080fd5b906000526020600020016000915054906101000a900473ffffffffffffffffffffffffffffffffffffffff1681565b60008054906101000a900473ffffffffffffffffffffffffffffffffffffffff1673ffffffffffffffffffffffffffffffffffffffff163373ffffffffffffffffffffffffffffffffffffffff1614610508576040517f08c379a00000000000000000000000000000000000000000000000000000000081526004018080602001828103825260238152602001806110846023913960400191505060405180910390fd5b600654421015610580576040517f08c379a00000000000000000000000000000000000000000000000000000000081526004018080602001828103825260168152602001807f456c656374696f6e20686173206e6f7420656e6465640000000000000000000081525060200191505060405180910390fd5b6002600460146101000a81548160ff0219169083600281111561059f57fe5b02179055506105ac610eae565b600460006101000a81548173ffffffffffffffffffffffffffffffffffffffff021916908373ffffffffffffffffffffffffffffffffffffffff1602179055507f05a88ee4bcd4ae62631fb7029f70fec14ed2e41886b3b9d204ecb778c0162644600460009054906101000a900473ffffffffffffffffffffffffffffffffffffffff16604051808273ffffffffffffffffffffffffffffffffffffffff16815260200191505060405180910390a1565b60008054906101000a900473ffffffffffffffffffffffffffffffffffffffff1673ffffffffffffffffffffffffffffffffffffffff163373ffffffffffffffffffffffffffffffffffffffff1614610701576040517f08c379a00000000000000000000000000000000000000000000000000000000081526004018080602001828103825260238152602001806110846023913960400191505060405180910390fd5b60016002805490501161075f576040517f08c379a000000000000000000000000000000000000000000000000000000000815260040180806020018281038252602b8152602001806110a7602b913960400191505060405180910390fd5b6001600460146101000a81548160ff0219169083600281111561077e57fe5b02179055507fc475c26aa25ed8e85a7faa790e5f63b5d7ee1025f12821f4c9bfddd36ab4d11260405160405180910390a1565b600360003373ffffffffffffffffffffffffffffffffffffffff1673ffffffffffffffffffffffffffffffffffffffff16815260200190815260200160002060009054906101000a900460ff1615610871576040517f08c379a00000000000000000000000000000000000000000000000000000000081526004018080602001828103825260198152602001807f416464726573732068617320616c726561647920766f7465640000000000000081525060200191505060405180910390fd5b60065442106108e8576040517f08c379a000000000000000000000000000000000000000000000000000000000815260040180806020018281038252601a8152602001807f456c656374696f6e207374696c6c20696e2070726f677265737300000000000081525060200191505060405180910390fd5b60018060008373ffffffffffffffffffffffffffffffffffffffff1673ffffffffffffffffffffffffffffffffffffffff1681526020019081526020016000206000828254019250508190555060006003905060018160003373ffffffffffffffffffffffffffffffffffffffff1673ffffffffffffffffffffffffffffffffffffffff16815260200190815260200160002060006101000a81548160ff0219169083151502179055507f86de0aca069f1a6dc2be8e20dc653c27a4677e78c233e85a753f2a95d807c29d82600160008573ffffffffffffffffffffffffffffffffffffffff1673ffffffffffffffffffffffffffffffffffffffff16815260200190815260200160002054604051808373ffffffffffffffffffffffffffffffffffffffff1681526020018281526020019250505060405180910390a15050565b60058054600181600116156101000203166002900480601f016020809104026020016040519081016040528092919081815260200182805460018160011615610100020316600290048015610ac05780601f10610a9557610100808354040283529160200191610ac0565b820191906000526020600020905b815481529060010190602001808311610aa357829003601f168201915b505050505081565b60008054906101000a900473ffffffffffffffffffffffffffffffffffffffff1681565b6000600654421015905090565b60016020528060005260406000206000915090505481565b600460009054906101000a900473ffffffffffffffffffffffffffffffffffffffff1681565b60006002811115610b4457fe5b600460149054906101000a900460ff166002811115610b5f57fe5b14610b6957600080fd5b60008054906101000a900473ffffffffffffffffffffffffffffffffffffffff1673ffffffffffffffffffffffffffffffffffffffff163373ffffffffffffffffffffffffffffffffffffffff1614610c0d576040517f08c379a00000000000000000000000000000000000000000000000000000000081526004018080602001828103825260238152602001806110846023913960400191505060405180910390fd5b60008054906101000a900473ffffffffffffffffffffffffffffffffffffffff1673ffffffffffffffffffffffffffffffffffffffff168173ffffffffffffffffffffffffffffffffffffffff161415610ccf576040517f08c379a000000000000000000000000000000000000000000000000000000000815260040180806020018281038252601a8152602001807f4f776e65722063616e6e6f74206e6f6d696e6174652073656c6600000000000081525060200191505060405180910390fd5b6000600160008373ffffffffffffffffffffffffffffffffffffffff1673ffffffffffffffffffffffffffffffffffffffff168152602001908152602001600020819055506002819080600181540180825580915050600190039060005260206000200160009091909190916101000a81548173ffffffffffffffffffffffffffffffffffffffff021916908373ffffffffffffffffffffffffffffffffffffffff1602179055507f42c310717a0e686ac2b6fac71a00ab4cea3895f9935f256caa0c7faf1dd8815781604051808273ffffffffffffffffffffffffffffffffffffffff16815260200191505060405180910390a150565b60008054906101000a900473ffffffffffffffffffffffffffffffffffffffff1673ffffffffffffffffffffffffffffffffffffffff163373ffffffffffffffffffffffffffffffffffffffff1614610e6b576040517f08c379a00000000000000000000000000000000000000000000000000000000081526004018080602001828103825260238152602001806110846023913960400191505060405180910390fd5b806000806101000a81548173ffffffffffffffffffffffffffffffffffffffff021916908373ffffffffffffffffffffffffffffffffffffffff16021790555050565b6000600654421015610f28576040517f08c379a00000000000000000000000000000000000000000000000000000000081526004018080602001828103825260168152602001807f456c656374696f6e20686173206e6f7420656e6465640000000000000000000081525060200191505060405180910390fd5b60008060005b60028054905081101561107a57816001600060028481548110610f4d57fe5b9060005260206000200160009054906101000a900473ffffffffffffffffffffffffffffffffffffffff1673ffffffffffffffffffffffffffffffffffffffff1673ffffffffffffffffffffffffffffffffffffffff16815260200190815260200160002054111561106d576001600060028381548110610fca57fe5b9060005260206000200160009054906101000a900473ffffffffffffffffffffffffffffffffffffffff1673ffffffffffffffffffffffffffffffffffffffff1673ffffffffffffffffffffffffffffffffffffffff1681526020019081526020016000205491506002818154811061103f57fe5b9060005260206000200160009054906101000a900473ffffffffffffffffffffffffffffffffffffffff1692505b8080600101915050610f2e565b5081925050509056fe4f6e6c7920746865206f776e6572206d617920657865637574652066756e6374696f6e416e20656c656374696f6e206d7573742068617665206174206c6561737420322063616e64696461746573a2646970667358221220054207aec2ca45a052508bf710fdd9989993b4093f4315910979b208d07c32ef64736f6c63430007040033",
  "immutableReferences": {},
  "source": "pragma solidity >=0.7.0 <0.8.0;\n\ncontract Election {\n    address public owner;\n    mapping(address => uint256) public votes;\n    address[] public candidates;\n    mapping(address => bool) public electionParticipants;\n    address public winner;\n    ElectionState public electionState;\n    string public electionName;\n    uint256 endTimeInEpochS;\n\n    event ElectionStarted();\n    event ElectionEnded(address winner);\n    event VoteAdded(address candidate, uint256 voteCount);\n    event CandidateNominated(address candidate);\n\n    enum ElectionState {NOT_STARTED, IN_PROGRESS, ENDED}\n\n    modifier isOwner() {\n        require(msg.sender == owner, \"Only the owner may execute function\");\n        _;\n    }\n\n    modifier notOwner(address a) {\n        require(a != owner, \"Owner cannot execute function\");\n        _;\n    }\n\n    modifier hasElectionNotStarted() {\n        require(electionState == ElectionState.NOT_STARTED);\n        _;\n    }\n\n    modifier hasNotVoted {\n        require(!electionParticipants[msg.sender], \"Address has already voted\");\n        _;\n    }\n\n    modifier hasNotEnded {\n        require(\n            block.timestamp < endTimeInEpochS,\n            \"Election still in progress\"\n        );\n        _;\n    }\n\n    modifier hasEnded {\n        require(block.timestamp >= endTimeInEpochS, \"Election has not ended\");\n        _;\n    }\n\n    constructor(string memory _electionName, uint256 _endTimeInEpochS) {\n        require(\n            block.timestamp < _endTimeInEpochS,\n            \"Election must end in the future\"\n        );\n        electionState = ElectionState.NOT_STARTED;\n        owner = msg.sender;\n        electionName = _electionName;\n        endTimeInEpochS = _endTimeInEpochS;\n    }\n\n    function transferOwnership(address newOwner) external isOwner {\n        owner = newOwner;\n    }\n\n    function nominateCandidate(address _candidate)\n        external\n        hasElectionNotStarted\n        isOwner\n    {\n        require(_candidate != owner, \"Owner cannot nominate self\");\n        votes[_candidate] = 0;\n        candidates.push(_candidate);\n        emit CandidateNominated(_candidate);\n    }\n\n    function startElection() external isOwner {\n        require(\n            candidates.length > 1,\n            \"An election must have at least 2 candidates\"\n        );\n        electionState = ElectionState.IN_PROGRESS;\n        emit ElectionStarted();\n    }\n\n    function endElection() external isOwner hasEnded {\n        electionState = ElectionState.ENDED;\n        winner = getWinner();\n        emit ElectionEnded(winner);\n    }\n\n    function hasElectionEnded() external view returns (bool) {\n        return block.timestamp >= endTimeInEpochS;\n    }\n\n    function getWinner() private view hasEnded returns (address) {\n        address winningAddress;\n        uint256 largestVoteCount;\n        for (uint256 i = 0; i < candidates.length; i++) {\n            if (votes[candidates[i]] > largestVoteCount) {\n                largestVoteCount = votes[candidates[i]];\n                winningAddress = candidates[i];\n            }\n        }\n        return winningAddress;\n    }\n\n    function vote(address _candidate) external hasNotVoted hasNotEnded {\n        votes[_candidate] += 1;\n        mapping(address => bool) storage participants = electionParticipants;\n        participants[msg.sender] = true;\n        emit VoteAdded(_candidate, votes[_candidate]);\n    }\n}\n",
  "sourcePath": "/Users/cds95/Documents/voting-dapp/contracts/Election.sol",
  "compiler": {
    "name": "solc",
    "version": "0.7.4+commit.3f05b770.Emscripten.clang"
  },
  "schemaVersion": "3.3.2",
  "updatedAt": "2021-01-20T21:10:46.584Z",
  "devdoc": {
    "kind": "dev",
    "methods": {},
    "version": 1
  },
  "userdoc": {
    "kind": "user",
    "methods": {},
    "version": 1
  }
}