{
  "contractName": "ElectionFactory",
  "abi": [
    {
      "anonymous": false,
      "inputs": [
        {
          "indexed": false,
          "internalType": "address",
          "name": "",
          "type": "address"
        }
      ],
      "name": "ElectionCreated",
      "type": "event"
    },
    {
      "inputs": [
        {
          "internalType": "uint256",
          "name": "",
          "type": "uint256"
        }
      ],
      "name": "elections",
      "outputs": [
        {
          "internalType": "contract Election",
          "name": "",
          "type": "address"
        }
      ],
      "stateMutability": "view",
      "type": "function",
      "constant": true
    },
    {
      "inputs": [
        {
          "internalType": "bytes32",
          "name": "electionName",
          "type": "bytes32"
        },
        {
          "internalType": "uint256",
          "name": "endTimeInEpochS",
          "type": "uint256"
        }
      ],
      "name": "hostNewElection",
      "outputs": [],
      "stateMutability": "nonpayable",
      "type": "function"
    },
    {
      "inputs": [],
      "name": "getElections",
      "outputs": [
        {
          "internalType": "contract Election[]",
          "name": "",
          "type": "address[]"
        }
      ],
      "stateMutability": "view",
      "type": "function",
      "constant": true
    },
    {
      "inputs": [],
      "name": "getDetailedElections",
      "outputs": [
        {
          "internalType": "bytes32[]",
          "name": "",
          "type": "bytes32[]"
        },
        {
          "internalType": "uint256[]",
          "name": "",
          "type": "uint256[]"
        }
      ],
      "stateMutability": "view",
      "type": "function",
      "constant": true
    }
  ],
  "bytecode": "0x608060405234801561001057600080fd5b506116cf806100206000396000f3fe608060405234801561001057600080fd5b506004361061004c5760003560e01c80631e095fe8146100515780635e6fef01146100f857806389b93518146101505780639f3a7f5214610188575b600080fd5b6100596101e7565b604051808060200180602001838103835285818151815260200191508051906020019060200280838360005b838110156100a0578082015181840152602081019050610085565b50505050905001838103825284818151815260200191508051906020019060200280838360005b838110156100e25780820151818401526020810190506100c7565b5050505090500194505050505060405180910390f35b6101246004803603602081101561010e57600080fd5b81019080803590602001909291905050506102e7565b604051808273ffffffffffffffffffffffffffffffffffffffff16815260200191505060405180910390f35b6101866004803603604081101561016657600080fd5b810190808035906020019092919080359060200190929190505050610326565b005b6101906104ae565b6040518080602001828103825283818151815260200191508051906020019060200280838360005b838110156101d35780820151818401526020810190506101b8565b505050509050019250505060405180910390f35b60608060608060005b6000805490508110156102da576000818154811061020a57fe5b9060005260206000200160009054906101000a900473ffffffffffffffffffffffffffffffffffffffff1673ffffffffffffffffffffffffffffffffffffffff166385e8e7a76040518163ffffffff1660e01b815260040160206040518083038186803b15801561027a57600080fd5b505afa15801561028e573d6000803e3d6000fd5b505050506040513d60208110156102a457600080fd5b81019080805190602001909291905050508382815181106102c157fe5b60200260200101818152505080806001019150506101f0565b5081819350935050509091565b600081815481106102f757600080fd5b906000526020600020016000915054906101000a900473ffffffffffffffffffffffffffffffffffffffff1681565b600082826040516103369061053c565b8083815260200182815260200192505050604051809103906000f080158015610363573d6000803e3d6000fd5b5090508073ffffffffffffffffffffffffffffffffffffffff1663f2fde38b336040518263ffffffff1660e01b8152600401808273ffffffffffffffffffffffffffffffffffffffff168152602001915050600060405180830381600087803b1580156103cf57600080fd5b505af11580156103e3573d6000803e3d6000fd5b505050506000819080600181540180825580915050600190039060005260206000200160009091909190916101000a81548173ffffffffffffffffffffffffffffffffffffffff021916908373ffffffffffffffffffffffffffffffffffffffff1602179055506001600081548092919060010191905055507f3bf25a9dfa34d3f99eec4217177ec490f7a345ee390de1e739e9c816a37122f081604051808273ffffffffffffffffffffffffffffffffffffffff16815260200191505060405180910390a1505050565b6060600080548060200260200160405190810160405280929190818152602001828054801561053257602002820191906000526020600020905b8160009054906101000a900473ffffffffffffffffffffffffffffffffffffffff1673ffffffffffffffffffffffffffffffffffffffff16815260200190600101908083116104e8575b5050505050905090565b6111508061054a8339019056fe608060405234801561001057600080fd5b506040516111503803806111508339818101604052604081101561003357600080fd5b8101908080519060200190929190805190602001909291905050508042106100c3576040517f08c379a000000000000000000000000000000000000000000000000000000000815260040180806020018281038252601f8152602001807f456c656374696f6e206d75737420656e6420696e20746865206675747572650081525060200191505060405180910390fd5b6000600460146101000a81548160ff021916908360028111156100e257fe5b0217905550336000806101000a81548173ffffffffffffffffffffffffffffffffffffffff021916908373ffffffffffffffffffffffffffffffffffffffff1602179055508160058190555080600681905550505061100a806101466000396000f3fe608060405234801561001057600080fd5b50600436106100cf5760003560e01c806385e8e7a71161008c578063d8bff5a511610066578063d8bff5a514610279578063dfbf53ae146102d1578063ede2de3714610305578063f2fde38b14610349576100cf565b806385e8e7a7146102075780638da5cb5b146102255780639d9a462c14610259576100cf565b80631913808b146100d45780632280043d1461012e5780633477ee2e1461015757806359f78468146101af57806362d73eb8146101b95780636dd7d8ea146101c3575b600080fd5b610116600480360360208110156100ea57600080fd5b81019080803573ffffffffffffffffffffffffffffffffffffffff16906020019092919050505061038d565b60405180821515815260200191505060405180910390f35b6101366103ad565b6040518082600281111561014657fe5b815260200191505060405180910390f35b6101836004803603602081101561016d57600080fd5b81019080803590602001909291905050506103c0565b604051808273ffffffffffffffffffffffffffffffffffffffff16815260200191505060405180910390f35b6101b76103ff565b005b6101c16105f8565b005b610205600480360360208110156101d957600080fd5b81019080803573ffffffffffffffffffffffffffffffffffffffff16906020019092919050505061074c565b005b61020f6109c5565b6040518082815260200191505060405180910390f35b61022d6109cb565b604051808273ffffffffffffffffffffffffffffffffffffffff16815260200191505060405180910390f35b6102616109ef565b60405180821515815260200191505060405180910390f35b6102bb6004803603602081101561028f57600080fd5b81019080803573ffffffffffffffffffffffffffffffffffffffff1690602001909291905050506109fc565b6040518082815260200191505060405180910390f35b6102d9610a14565b604051808273ffffffffffffffffffffffffffffffffffffffff16815260200191505060405180910390f35b6103476004803603602081101561031b57600080fd5b81019080803573ffffffffffffffffffffffffffffffffffffffff169060200190929190505050610a3a565b005b61038b6004803603602081101561035f57600080fd5b81019080803573ffffffffffffffffffffffffffffffffffffffff169060200190929190505050610cca565b005b60036020528060005260406000206000915054906101000a900460ff1681565b600460149054906101000a900460ff1681565b600281815481106103d057600080fd5b906000526020600020016000915054906101000a900473ffffffffffffffffffffffffffffffffffffffff1681565b60008054906101000a900473ffffffffffffffffffffffffffffffffffffffff1673ffffffffffffffffffffffffffffffffffffffff163373ffffffffffffffffffffffffffffffffffffffff16146104a3576040517f08c379a0000000000000000000000000000000000000000000000000000000008152600401808060200182810382526023815260200180610f876023913960400191505060405180910390fd5b60065442101561051b576040517f08c379a00000000000000000000000000000000000000000000000000000000081526004018080602001828103825260168152602001807f456c656374696f6e20686173206e6f7420656e6465640000000000000000000081525060200191505060405180910390fd5b6002600460146101000a81548160ff0219169083600281111561053a57fe5b0217905550610547610db1565b600460006101000a81548173ffffffffffffffffffffffffffffffffffffffff021916908373ffffffffffffffffffffffffffffffffffffffff1602179055507f05a88ee4bcd4ae62631fb7029f70fec14ed2e41886b3b9d204ecb778c0162644600460009054906101000a900473ffffffffffffffffffffffffffffffffffffffff16604051808273ffffffffffffffffffffffffffffffffffffffff16815260200191505060405180910390a1565b60008054906101000a900473ffffffffffffffffffffffffffffffffffffffff1673ffffffffffffffffffffffffffffffffffffffff163373ffffffffffffffffffffffffffffffffffffffff161461069c576040517f08c379a0000000000000000000000000000000000000000000000000000000008152600401808060200182810382526023815260200180610f876023913960400191505060405180910390fd5b6001600280549050116106fa576040517f08c379a000000000000000000000000000000000000000000000000000000000815260040180806020018281038252602b815260200180610faa602b913960400191505060405180910390fd5b6001600460146101000a81548160ff0219169083600281111561071957fe5b02179055507fc475c26aa25ed8e85a7faa790e5f63b5d7ee1025f12821f4c9bfddd36ab4d11260405160405180910390a1565b600360003373ffffffffffffffffffffffffffffffffffffffff1673ffffffffffffffffffffffffffffffffffffffff16815260200190815260200160002060009054906101000a900460ff161561080c576040517f08c379a00000000000000000000000000000000000000000000000000000000081526004018080602001828103825260198152602001807f416464726573732068617320616c726561647920766f7465640000000000000081525060200191505060405180910390fd5b6006544210610883576040517f08c379a000000000000000000000000000000000000000000000000000000000815260040180806020018281038252601a8152602001807f456c656374696f6e207374696c6c20696e2070726f677265737300000000000081525060200191505060405180910390fd5b60018060008373ffffffffffffffffffffffffffffffffffffffff1673ffffffffffffffffffffffffffffffffffffffff1681526020019081526020016000206000828254019250508190555060006003905060018160003373ffffffffffffffffffffffffffffffffffffffff1673ffffffffffffffffffffffffffffffffffffffff16815260200190815260200160002060006101000a81548160ff0219169083151502179055507f86de0aca069f1a6dc2be8e20dc653c27a4677e78c233e85a753f2a95d807c29d82600160008573ffffffffffffffffffffffffffffffffffffffff1673ffffffffffffffffffffffffffffffffffffffff16815260200190815260200160002054604051808373ffffffffffffffffffffffffffffffffffffffff1681526020018281526020019250505060405180910390a15050565b60055481565b60008054906101000a900473ffffffffffffffffffffffffffffffffffffffff1681565b6000600654421015905090565b60016020528060005260406000206000915090505481565b600460009054906101000a900473ffffffffffffffffffffffffffffffffffffffff1681565b60006002811115610a4757fe5b600460149054906101000a900460ff166002811115610a6257fe5b14610a6c57600080fd5b60008054906101000a900473ffffffffffffffffffffffffffffffffffffffff1673ffffffffffffffffffffffffffffffffffffffff163373ffffffffffffffffffffffffffffffffffffffff1614610b10576040517f08c379a0000000000000000000000000000000000000000000000000000000008152600401808060200182810382526023815260200180610f876023913960400191505060405180910390fd5b60008054906101000a900473ffffffffffffffffffffffffffffffffffffffff1673ffffffffffffffffffffffffffffffffffffffff168173ffffffffffffffffffffffffffffffffffffffff161415610bd2576040517f08c379a000000000000000000000000000000000000000000000000000000000815260040180806020018281038252601a8152602001807f4f776e65722063616e6e6f74206e6f6d696e6174652073656c6600000000000081525060200191505060405180910390fd5b6000600160008373ffffffffffffffffffffffffffffffffffffffff1673ffffffffffffffffffffffffffffffffffffffff168152602001908152602001600020819055506002819080600181540180825580915050600190039060005260206000200160009091909190916101000a81548173ffffffffffffffffffffffffffffffffffffffff021916908373ffffffffffffffffffffffffffffffffffffffff1602179055507f42c310717a0e686ac2b6fac71a00ab4cea3895f9935f256caa0c7faf1dd8815781604051808273ffffffffffffffffffffffffffffffffffffffff16815260200191505060405180910390a150565b60008054906101000a900473ffffffffffffffffffffffffffffffffffffffff1673ffffffffffffffffffffffffffffffffffffffff163373ffffffffffffffffffffffffffffffffffffffff1614610d6e576040517f08c379a0000000000000000000000000000000000000000000000000000000008152600401808060200182810382526023815260200180610f876023913960400191505060405180910390fd5b806000806101000a81548173ffffffffffffffffffffffffffffffffffffffff021916908373ffffffffffffffffffffffffffffffffffffffff16021790555050565b6000600654421015610e2b576040517f08c379a00000000000000000000000000000000000000000000000000000000081526004018080602001828103825260168152602001807f456c656374696f6e20686173206e6f7420656e6465640000000000000000000081525060200191505060405180910390fd5b60008060005b600280549050811015610f7d57816001600060028481548110610e5057fe5b9060005260206000200160009054906101000a900473ffffffffffffffffffffffffffffffffffffffff1673ffffffffffffffffffffffffffffffffffffffff1673ffffffffffffffffffffffffffffffffffffffff168152602001908152602001600020541115610f70576001600060028381548110610ecd57fe5b9060005260206000200160009054906101000a900473ffffffffffffffffffffffffffffffffffffffff1673ffffffffffffffffffffffffffffffffffffffff1673ffffffffffffffffffffffffffffffffffffffff16815260200190815260200160002054915060028181548110610f4257fe5b9060005260206000200160009054906101000a900473ffffffffffffffffffffffffffffffffffffffff1692505b8080600101915050610e31565b5081925050509056fe4f6e6c7920746865206f776e6572206d617920657865637574652066756e6374696f6e416e20656c656374696f6e206d7573742068617665206174206c6561737420322063616e64696461746573a2646970667358221220ec4ade06e1d7cf1f6c8c522b2b279fa82756c4ef45593257685a4815859c1f5764736f6c63430007040033a26469706673582212202264ca74c899fdb6d332cf5a11c6b8a011da97606a1df4bb94e7390a2072182c64736f6c63430007040033",
  "immutableReferences": {},
  "source": "pragma solidity >=0.7.0 <0.8.0;\n\nimport \"./Election.sol\";\n\ncontract ElectionFactory {\n    Election[] public elections;\n    uint256 numElections;\n\n    event ElectionCreated(address);\n\n    function hostNewElection(bytes32 electionName, uint256 endTimeInEpochS)\n        external\n    {\n        Election newElection = new Election(electionName, endTimeInEpochS);\n        newElection.transferOwnership(msg.sender);\n        elections.push(newElection);\n        numElections++;\n        emit ElectionCreated(address(newElection));\n    }\n\n    function getElections() external view returns (Election[] memory) {\n        return elections;\n    }\n\n    function getDetailedElections()\n        external\n        view\n        returns (bytes32[] memory, uint256[] memory)\n    {\n        bytes32[] memory electionNames;\n        uint256[] memory electionEndTimesInEpochS;\n        for (uint256 i = 0; i < elections.length; i++) {\n            electionNames[i] = elections[i].electionName();\n        }\n        return (electionNames, electionEndTimesInEpochS);\n    }\n}\n",
  "sourcePath": "/Users/cds95/Documents/voting-dapp/contracts/ElectionFactory.sol",
  "compiler": {
    "name": "solc",
    "version": "0.7.4+commit.3f05b770.Emscripten.clang"
  },
  "schemaVersion": "3.3.2",
  "updatedAt": "2021-01-25T04:47:38.552Z",
  "networkType": "ethereum",
  "devdoc": {
    "kind": "dev",
    "methods": {},
    "version": 1
  },
  "userdoc": {
    "kind": "user",
    "methods": {},
    "version": 1
  }
}