{
  "contractName": "Election",
  "abi": [
    {
      "inputs": [
        {
          "internalType": "string",
          "name": "_electionName",
          "type": "string"
        }
      ],
      "stateMutability": "nonpayable",
      "type": "constructor"
    },
    {
      "anonymous": false,
      "inputs": [
        {
          "indexed": false,
          "internalType": "address",
          "name": "candidate",
          "type": "address"
        }
      ],
      "name": "CandidateNominated",
      "type": "event"
    },
    {
      "anonymous": false,
      "inputs": [
        {
          "indexed": false,
          "internalType": "address",
          "name": "winner",
          "type": "address"
        }
      ],
      "name": "ElectionEnded",
      "type": "event"
    },
    {
      "anonymous": false,
      "inputs": [],
      "name": "ElectionStarted",
      "type": "event"
    },
    {
      "anonymous": false,
      "inputs": [
        {
          "indexed": false,
          "internalType": "address",
          "name": "candidate",
          "type": "address"
        },
        {
          "indexed": false,
          "internalType": "uint256",
          "name": "voteCount",
          "type": "uint256"
        }
      ],
      "name": "VoteAdded",
      "type": "event"
    },
    {
      "inputs": [
        {
          "internalType": "uint256",
          "name": "",
          "type": "uint256"
        }
      ],
      "name": "candidates",
      "outputs": [
        {
          "internalType": "address",
          "name": "",
          "type": "address"
        }
      ],
      "stateMutability": "view",
      "type": "function",
      "constant": true
    },
    {
      "inputs": [],
      "name": "electionName",
      "outputs": [
        {
          "internalType": "string",
          "name": "",
          "type": "string"
        }
      ],
      "stateMutability": "view",
      "type": "function",
      "constant": true
    },
    {
      "inputs": [
        {
          "internalType": "address",
          "name": "",
          "type": "address"
        }
      ],
      "name": "electionParticipants",
      "outputs": [
        {
          "internalType": "bool",
          "name": "",
          "type": "bool"
        }
      ],
      "stateMutability": "view",
      "type": "function",
      "constant": true
    },
    {
      "inputs": [],
      "name": "electionState",
      "outputs": [
        {
          "internalType": "enum Election.ElectionState",
          "name": "",
          "type": "uint8"
        }
      ],
      "stateMutability": "view",
      "type": "function",
      "constant": true
    },
    {
      "inputs": [],
      "name": "owner",
      "outputs": [
        {
          "internalType": "address",
          "name": "",
          "type": "address"
        }
      ],
      "stateMutability": "view",
      "type": "function",
      "constant": true
    },
    {
      "inputs": [
        {
          "internalType": "address",
          "name": "",
          "type": "address"
        }
      ],
      "name": "votes",
      "outputs": [
        {
          "internalType": "uint256",
          "name": "",
          "type": "uint256"
        }
      ],
      "stateMutability": "view",
      "type": "function",
      "constant": true
    },
    {
      "inputs": [],
      "name": "winner",
      "outputs": [
        {
          "internalType": "address",
          "name": "",
          "type": "address"
        }
      ],
      "stateMutability": "view",
      "type": "function",
      "constant": true
    },
    {
      "inputs": [
        {
          "internalType": "address",
          "name": "newOwner",
          "type": "address"
        }
      ],
      "name": "transferOwnership",
      "outputs": [],
      "stateMutability": "nonpayable",
      "type": "function"
    },
    {
      "inputs": [
        {
          "internalType": "address",
          "name": "_candidate",
          "type": "address"
        }
      ],
      "name": "nominateCandidate",
      "outputs": [],
      "stateMutability": "nonpayable",
      "type": "function"
    },
    {
      "inputs": [],
      "name": "startElection",
      "outputs": [],
      "stateMutability": "nonpayable",
      "type": "function"
    },
    {
      "inputs": [],
      "name": "endElection",
      "outputs": [],
      "stateMutability": "nonpayable",
      "type": "function"
    },
    {
      "inputs": [
        {
          "internalType": "address",
          "name": "_candidate",
          "type": "address"
        }
      ],
      "name": "vote",
      "outputs": [],
      "stateMutability": "nonpayable",
      "type": "function"
    }
  ],
  "bytecode": "0x60806040523480156200001157600080fd5b506040516200119e3803806200119e833981810160405260208110156200003757600080fd5b81019080805160405193929190846401000000008211156200005857600080fd5b838201915060208201858111156200006f57600080fd5b82518660018202830111640100000000821117156200008d57600080fd5b8083526020830192505050908051906020019080838360005b83811015620000c3578082015181840152602081019050620000a6565b50505050905090810190601f168015620000f15780820380516001836020036101000a031916815260200191505b506040525050506000600460146101000a81548160ff021916908360028111156200011857fe5b0217905550336000806101000a81548173ffffffffffffffffffffffffffffffffffffffff021916908373ffffffffffffffffffffffffffffffffffffffff1602179055508060059080519060200190620001759291906200017d565b505062000233565b828054600181600116156101000203166002900490600052602060002090601f016020900481019282620001b5576000855562000201565b82601f10620001d057805160ff191683800117855562000201565b8280016001018555821562000201579182015b8281111562000200578251825591602001919060010190620001e3565b5b50905062000210919062000214565b5090565b5b808211156200022f57600081600090555060010162000215565b5090565b610f5b80620002436000396000f3fe608060405234801561001057600080fd5b50600436106100b45760003560e01c806385e8e7a71161007157806385e8e7a7146101ec5780638da5cb5b1461026f578063d8bff5a5146102a3578063dfbf53ae146102fb578063ede2de371461032f578063f2fde38b14610373576100b4565b80631913808b146100b95780632280043d146101135780633477ee2e1461013c57806359f784681461019457806362d73eb81461019e5780636dd7d8ea146101a8575b600080fd5b6100fb600480360360208110156100cf57600080fd5b81019080803573ffffffffffffffffffffffffffffffffffffffff1690602001909291905050506103b7565b60405180821515815260200191505060405180910390f35b61011b6103d7565b6040518082600281111561012b57fe5b815260200191505060405180910390f35b6101686004803603602081101561015257600080fd5b81019080803590602001909291905050506103ea565b604051808273ffffffffffffffffffffffffffffffffffffffff16815260200191505060405180910390f35b61019c610429565b005b6101a66105aa565b005b6101ea600480360360208110156101be57600080fd5b81019080803573ffffffffffffffffffffffffffffffffffffffff1690602001909291905050506106fe565b005b6101f4610900565b6040518080602001828103825283818151815260200191508051906020019080838360005b83811015610234578082015181840152602081019050610219565b50505050905090810190601f1680156102615780820380516001836020036101000a031916815260200191505b509250505060405180910390f35b61027761099e565b604051808273ffffffffffffffffffffffffffffffffffffffff16815260200191505060405180910390f35b6102e5600480360360208110156102b957600080fd5b81019080803573ffffffffffffffffffffffffffffffffffffffff1690602001909291905050506109c2565b6040518082815260200191505060405180910390f35b6103036109da565b604051808273ffffffffffffffffffffffffffffffffffffffff16815260200191505060405180910390f35b6103716004803603602081101561034557600080fd5b81019080803573ffffffffffffffffffffffffffffffffffffffff169060200190929190505050610a00565b005b6103b56004803603602081101561038957600080fd5b81019080803573ffffffffffffffffffffffffffffffffffffffff169060200190929190505050610c90565b005b60036020528060005260406000206000915054906101000a900460ff1681565b600460149054906101000a900460ff1681565b600281815481106103fa57600080fd5b906000526020600020016000915054906101000a900473ffffffffffffffffffffffffffffffffffffffff1681565b60008054906101000a900473ffffffffffffffffffffffffffffffffffffffff1673ffffffffffffffffffffffffffffffffffffffff163373ffffffffffffffffffffffffffffffffffffffff16146104cd576040517f08c379a0000000000000000000000000000000000000000000000000000000008152600401808060200182810382526023815260200180610ed86023913960400191505060405180910390fd5b6002600460146101000a81548160ff021916908360028111156104ec57fe5b02179055506104f9610d77565b600460006101000a81548173ffffffffffffffffffffffffffffffffffffffff021916908373ffffffffffffffffffffffffffffffffffffffff1602179055507f05a88ee4bcd4ae62631fb7029f70fec14ed2e41886b3b9d204ecb778c0162644600460009054906101000a900473ffffffffffffffffffffffffffffffffffffffff16604051808273ffffffffffffffffffffffffffffffffffffffff16815260200191505060405180910390a1565b60008054906101000a900473ffffffffffffffffffffffffffffffffffffffff1673ffffffffffffffffffffffffffffffffffffffff163373ffffffffffffffffffffffffffffffffffffffff161461064e576040517f08c379a0000000000000000000000000000000000000000000000000000000008152600401808060200182810382526023815260200180610ed86023913960400191505060405180910390fd5b6001600280549050116106ac576040517f08c379a000000000000000000000000000000000000000000000000000000000815260040180806020018281038252602b815260200180610efb602b913960400191505060405180910390fd5b6001600460146101000a81548160ff021916908360028111156106cb57fe5b02179055507fc475c26aa25ed8e85a7faa790e5f63b5d7ee1025f12821f4c9bfddd36ab4d11260405160405180910390a1565b600360003373ffffffffffffffffffffffffffffffffffffffff1673ffffffffffffffffffffffffffffffffffffffff16815260200190815260200160002060009054906101000a900460ff16156107be576040517f08c379a00000000000000000000000000000000000000000000000000000000081526004018080602001828103825260198152602001807f416464726573732068617320616c726561647920766f7465640000000000000081525060200191505060405180910390fd5b60018060008373ffffffffffffffffffffffffffffffffffffffff1673ffffffffffffffffffffffffffffffffffffffff1681526020019081526020016000206000828254019250508190555060006003905060018160003373ffffffffffffffffffffffffffffffffffffffff1673ffffffffffffffffffffffffffffffffffffffff16815260200190815260200160002060006101000a81548160ff0219169083151502179055507f86de0aca069f1a6dc2be8e20dc653c27a4677e78c233e85a753f2a95d807c29d82600160008573ffffffffffffffffffffffffffffffffffffffff1673ffffffffffffffffffffffffffffffffffffffff16815260200190815260200160002054604051808373ffffffffffffffffffffffffffffffffffffffff1681526020018281526020019250505060405180910390a15050565b60058054600181600116156101000203166002900480601f0160208091040260200160405190810160405280929190818152602001828054600181600116156101000203166002900480156109965780601f1061096b57610100808354040283529160200191610996565b820191906000526020600020905b81548152906001019060200180831161097957829003601f168201915b505050505081565b60008054906101000a900473ffffffffffffffffffffffffffffffffffffffff1681565b60016020528060005260406000206000915090505481565b600460009054906101000a900473ffffffffffffffffffffffffffffffffffffffff1681565b60006002811115610a0d57fe5b600460149054906101000a900460ff166002811115610a2857fe5b14610a3257600080fd5b60008054906101000a900473ffffffffffffffffffffffffffffffffffffffff1673ffffffffffffffffffffffffffffffffffffffff163373ffffffffffffffffffffffffffffffffffffffff1614610ad6576040517f08c379a0000000000000000000000000000000000000000000000000000000008152600401808060200182810382526023815260200180610ed86023913960400191505060405180910390fd5b60008054906101000a900473ffffffffffffffffffffffffffffffffffffffff1673ffffffffffffffffffffffffffffffffffffffff168173ffffffffffffffffffffffffffffffffffffffff161415610b98576040517f08c379a000000000000000000000000000000000000000000000000000000000815260040180806020018281038252601a8152602001807f4f776e65722063616e6e6f74206e6f6d696e6174652073656c6600000000000081525060200191505060405180910390fd5b6000600160008373ffffffffffffffffffffffffffffffffffffffff1673ffffffffffffffffffffffffffffffffffffffff168152602001908152602001600020819055506002819080600181540180825580915050600190039060005260206000200160009091909190916101000a81548173ffffffffffffffffffffffffffffffffffffffff021916908373ffffffffffffffffffffffffffffffffffffffff1602179055507f42c310717a0e686ac2b6fac71a00ab4cea3895f9935f256caa0c7faf1dd8815781604051808273ffffffffffffffffffffffffffffffffffffffff16815260200191505060405180910390a150565b60008054906101000a900473ffffffffffffffffffffffffffffffffffffffff1673ffffffffffffffffffffffffffffffffffffffff163373ffffffffffffffffffffffffffffffffffffffff1614610d34576040517f08c379a0000000000000000000000000000000000000000000000000000000008152600401808060200182810382526023815260200180610ed86023913960400191505060405180910390fd5b806000806101000a81548173ffffffffffffffffffffffffffffffffffffffff021916908373ffffffffffffffffffffffffffffffffffffffff16021790555050565b600080600080600090505b600280549050811015610ece57816001600060028481548110610da157fe5b9060005260206000200160009054906101000a900473ffffffffffffffffffffffffffffffffffffffff1673ffffffffffffffffffffffffffffffffffffffff1673ffffffffffffffffffffffffffffffffffffffff168152602001908152602001600020541115610ec1576001600060028381548110610e1e57fe5b9060005260206000200160009054906101000a900473ffffffffffffffffffffffffffffffffffffffff1673ffffffffffffffffffffffffffffffffffffffff1673ffffffffffffffffffffffffffffffffffffffff16815260200190815260200160002054915060028181548110610e9357fe5b9060005260206000200160009054906101000a900473ffffffffffffffffffffffffffffffffffffffff1692505b8080600101915050610d82565b5081925050509056fe4f6e6c7920746865206f776e6572206d617920657865637574652066756e6374696f6e416e20656c656374696f6e206d7573742068617665206174206c6561737420322063616e64696461746573a26469706673582212200f5765e2e25d3e0ea692ac60d1d87dcbee847c7d2935fca9811e15aca6a24b8a64736f6c63430007040033",
  "immutableReferences": {},
  "source": "pragma solidity >=0.7.0 <0.8.0;\n\ncontract Election {\n    address public owner;\n    mapping(address => uint256) public votes;\n    address[] public candidates;\n    mapping(address => bool) public electionParticipants;\n    address public winner;\n    ElectionState public electionState;\n    string public electionName;\n\n    event ElectionStarted();\n    event ElectionEnded(address winner);\n    event VoteAdded(address candidate, uint256 voteCount);\n    event CandidateNominated(address candidate);\n\n    enum ElectionState {NOT_STARTED, IN_PROGRESS, ENDED}\n\n    modifier isOwner() {\n        require(msg.sender == owner, \"Only the owner may execute function\");\n        _;\n    }\n\n    modifier notOwner(address a) {\n        require(a != owner, \"Owner cannot execute function\");\n        _;\n    }\n\n    modifier isElectionNotStarted() {\n        require(electionState == ElectionState.NOT_STARTED);\n        _;\n    }\n\n    modifier hasNotVoted {\n        require(!electionParticipants[msg.sender], \"Address has already voted\");\n        _;\n    }\n\n    constructor(string memory _electionName) {\n        electionState = ElectionState.NOT_STARTED;\n        owner = msg.sender;\n        electionName = _electionName;\n    }\n\n    function transferOwnership(address newOwner) external isOwner {\n        owner = newOwner;\n    }\n\n    function nominateCandidate(address _candidate)\n        external\n        isElectionNotStarted\n        isOwner\n    {\n        require(_candidate != owner, \"Owner cannot nominate self\");\n        votes[_candidate] = 0;\n        candidates.push(_candidate);\n        emit CandidateNominated(_candidate);\n    }\n\n    function startElection() external isOwner {\n        require(\n            candidates.length > 1,\n            \"An election must have at least 2 candidates\"\n        );\n        electionState = ElectionState.IN_PROGRESS;\n        emit ElectionStarted();\n    }\n\n    function endElection() external isOwner {\n        electionState = ElectionState.ENDED;\n        winner = getWinner();\n        emit ElectionEnded(winner);\n    }\n\n    function getWinner() private view returns (address) {\n        address winningAddress;\n        uint256 largestVoteCount;\n        for (uint256 i = 0; i < candidates.length; i++) {\n            if (votes[candidates[i]] > largestVoteCount) {\n                largestVoteCount = votes[candidates[i]];\n                winningAddress = candidates[i];\n            }\n        }\n        return winningAddress;\n    }\n\n    function vote(address _candidate) external hasNotVoted {\n        votes[_candidate] += 1;\n        mapping(address => bool) storage participants = electionParticipants;\n        participants[msg.sender] = true;\n        emit VoteAdded(_candidate, votes[_candidate]);\n    }\n}\n",
  "sourcePath": "/Users/cds95/Documents/voting-dapp/contracts/Election.sol",
  "compiler": {
    "name": "solc",
    "version": "0.7.4+commit.3f05b770.Emscripten.clang"
  },
  "schemaVersion": "3.3.2",
  "updatedAt": "2021-01-20T03:59:53.602Z",
  "networkType": "ethereum",
  "devdoc": {
    "kind": "dev",
    "methods": {},
    "version": 1
  },
  "userdoc": {
    "kind": "user",
    "methods": {},
    "version": 1
  }
}