{
  "contractName": "Election",
  "abi": [
    {
      "inputs": [
        {
          "internalType": "bytes32",
          "name": "_electionName",
          "type": "bytes32"
        },
        {
          "internalType": "uint256",
          "name": "_endTimeInEpochS",
          "type": "uint256"
        }
      ],
      "stateMutability": "nonpayable",
      "type": "constructor"
    },
    {
      "anonymous": false,
      "inputs": [
        {
          "indexed": false,
          "internalType": "address",
          "name": "candidate",
          "type": "address"
        }
      ],
      "name": "CandidateNominated",
      "type": "event"
    },
    {
      "anonymous": false,
      "inputs": [
        {
          "indexed": false,
          "internalType": "address",
          "name": "winner",
          "type": "address"
        }
      ],
      "name": "ElectionEnded",
      "type": "event"
    },
    {
      "anonymous": false,
      "inputs": [],
      "name": "ElectionStarted",
      "type": "event"
    },
    {
      "anonymous": false,
      "inputs": [
        {
          "indexed": false,
          "internalType": "address",
          "name": "candidate",
          "type": "address"
        },
        {
          "indexed": false,
          "internalType": "uint256",
          "name": "voteCount",
          "type": "uint256"
        }
      ],
      "name": "VoteAdded",
      "type": "event"
    },
    {
      "inputs": [
        {
          "internalType": "uint256",
          "name": "",
          "type": "uint256"
        }
      ],
      "name": "candidates",
      "outputs": [
        {
          "internalType": "address",
          "name": "",
          "type": "address"
        }
      ],
      "stateMutability": "view",
      "type": "function",
      "constant": true
    },
    {
      "inputs": [],
      "name": "electionName",
      "outputs": [
        {
          "internalType": "bytes32",
          "name": "",
          "type": "bytes32"
        }
      ],
      "stateMutability": "view",
      "type": "function",
      "constant": true
    },
    {
      "inputs": [
        {
          "internalType": "address",
          "name": "",
          "type": "address"
        }
      ],
      "name": "electionParticipants",
      "outputs": [
        {
          "internalType": "bool",
          "name": "",
          "type": "bool"
        }
      ],
      "stateMutability": "view",
      "type": "function",
      "constant": true
    },
    {
      "inputs": [],
      "name": "electionState",
      "outputs": [
        {
          "internalType": "enum Election.ElectionState",
          "name": "",
          "type": "uint8"
        }
      ],
      "stateMutability": "view",
      "type": "function",
      "constant": true
    },
    {
      "inputs": [],
      "name": "endTimeInEpochS",
      "outputs": [
        {
          "internalType": "uint256",
          "name": "",
          "type": "uint256"
        }
      ],
      "stateMutability": "view",
      "type": "function",
      "constant": true
    },
    {
      "inputs": [],
      "name": "owner",
      "outputs": [
        {
          "internalType": "address",
          "name": "",
          "type": "address"
        }
      ],
      "stateMutability": "view",
      "type": "function",
      "constant": true
    },
    {
      "inputs": [
        {
          "internalType": "address",
          "name": "",
          "type": "address"
        }
      ],
      "name": "votes",
      "outputs": [
        {
          "internalType": "uint256",
          "name": "",
          "type": "uint256"
        }
      ],
      "stateMutability": "view",
      "type": "function",
      "constant": true
    },
    {
      "inputs": [],
      "name": "winner",
      "outputs": [
        {
          "internalType": "address",
          "name": "",
          "type": "address"
        }
      ],
      "stateMutability": "view",
      "type": "function",
      "constant": true
    },
    {
      "inputs": [
        {
          "internalType": "address",
          "name": "newOwner",
          "type": "address"
        }
      ],
      "name": "transferOwnership",
      "outputs": [],
      "stateMutability": "nonpayable",
      "type": "function"
    },
    {
      "inputs": [
        {
          "internalType": "address",
          "name": "_candidate",
          "type": "address"
        }
      ],
      "name": "nominateCandidate",
      "outputs": [],
      "stateMutability": "nonpayable",
      "type": "function"
    },
    {
      "inputs": [],
      "name": "startElection",
      "outputs": [],
      "stateMutability": "nonpayable",
      "type": "function"
    },
    {
      "inputs": [],
      "name": "endElection",
      "outputs": [],
      "stateMutability": "nonpayable",
      "type": "function"
    },
    {
      "inputs": [],
      "name": "hasElectionEnded",
      "outputs": [
        {
          "internalType": "bool",
          "name": "",
          "type": "bool"
        }
      ],
      "stateMutability": "view",
      "type": "function",
      "constant": true
    },
    {
      "inputs": [
        {
          "internalType": "address",
          "name": "_candidate",
          "type": "address"
        }
      ],
      "name": "vote",
      "outputs": [],
      "stateMutability": "nonpayable",
      "type": "function"
    },
    {
      "inputs": [],
      "name": "getCandidates",
      "outputs": [
        {
          "internalType": "address[]",
          "name": "",
          "type": "address[]"
        }
      ],
      "stateMutability": "view",
      "type": "function",
      "constant": true
    }
  ],
  "bytecode": "0x608060405234801561001057600080fd5b5060405161132a38038061132a8339818101604052604081101561003357600080fd5b8101908080519060200190929190805190602001909291905050508042106100c3576040517f08c379a000000000000000000000000000000000000000000000000000000000815260040180806020018281038252601f8152602001807f456c656374696f6e206d75737420656e6420696e20746865206675747572650081525060200191505060405180910390fd5b6000600460146101000a81548160ff021916908360028111156100e257fe5b0217905550336000806101000a81548173ffffffffffffffffffffffffffffffffffffffff021916908373ffffffffffffffffffffffffffffffffffffffff160217905550816005819055508060068190555050506111e4806101466000396000f3fe608060405234801561001057600080fd5b50600436106100f55760003560e01c80636dd7d8ea11610097578063d8bff5a511610066578063d8bff5a51461031c578063dfbf53ae14610374578063ede2de37146103a8578063f2fde38b146103ec576100f5565b80636dd7d8ea1461026657806385e8e7a7146102aa5780638da5cb5b146102c85780639d9a462c146102fc576100f5565b80632280043d116100d35780632280043d146101d15780633477ee2e146101fa57806359f784681461025257806362d73eb81461025c576100f5565b806306a49fce146100fa57806319004ff7146101595780631913808b14610177575b600080fd5b610102610430565b6040518080602001828103825283818151815260200191508051906020019060200280838360005b8381101561014557808201518184015260208101905061012a565b505050509050019250505060405180910390f35b6101616104be565b6040518082815260200191505060405180910390f35b6101b96004803603602081101561018d57600080fd5b81019080803573ffffffffffffffffffffffffffffffffffffffff1690602001909291905050506104c4565b60405180821515815260200191505060405180910390f35b6101d96104e4565b604051808260028111156101e957fe5b815260200191505060405180910390f35b6102266004803603602081101561021057600080fd5b81019080803590602001909291905050506104f7565b604051808273ffffffffffffffffffffffffffffffffffffffff16815260200191505060405180910390f35b61025a610536565b005b61026461072f565b005b6102a86004803603602081101561027c57600080fd5b81019080803573ffffffffffffffffffffffffffffffffffffffff169060200190929190505050610883565b005b6102b2610b7a565b6040518082815260200191505060405180910390f35b6102d0610b80565b604051808273ffffffffffffffffffffffffffffffffffffffff16815260200191505060405180910390f35b610304610ba4565b60405180821515815260200191505060405180910390f35b61035e6004803603602081101561033257600080fd5b81019080803573ffffffffffffffffffffffffffffffffffffffff169060200190929190505050610bb1565b6040518082815260200191505060405180910390f35b61037c610bc9565b604051808273ffffffffffffffffffffffffffffffffffffffff16815260200191505060405180910390f35b6103ea600480360360208110156103be57600080fd5b81019080803573ffffffffffffffffffffffffffffffffffffffff169060200190929190505050610bef565b005b61042e6004803603602081101561040257600080fd5b81019080803573ffffffffffffffffffffffffffffffffffffffff169060200190929190505050610e7f565b005b606060028054806020026020016040519081016040528092919081815260200182805480156104b457602002820191906000526020600020905b8160009054906101000a900473ffffffffffffffffffffffffffffffffffffffff1673ffffffffffffffffffffffffffffffffffffffff168152602001906001019080831161046a575b5050505050905090565b60065481565b60036020528060005260406000206000915054906101000a900460ff1681565b600460149054906101000a900460ff1681565b6002818154811061050757600080fd5b906000526020600020016000915054906101000a900473ffffffffffffffffffffffffffffffffffffffff1681565b60008054906101000a900473ffffffffffffffffffffffffffffffffffffffff1673ffffffffffffffffffffffffffffffffffffffff163373ffffffffffffffffffffffffffffffffffffffff16146105da576040517f08c379a000000000000000000000000000000000000000000000000000000000815260040180806020018281038252602381526020018061113c6023913960400191505060405180910390fd5b600654421015610652576040517f08c379a00000000000000000000000000000000000000000000000000000000081526004018080602001828103825260168152602001807f456c656374696f6e20686173206e6f7420656e6465640000000000000000000081525060200191505060405180910390fd5b6002600460146101000a81548160ff0219169083600281111561067157fe5b021790555061067e610f66565b600460006101000a81548173ffffffffffffffffffffffffffffffffffffffff021916908373ffffffffffffffffffffffffffffffffffffffff1602179055507f05a88ee4bcd4ae62631fb7029f70fec14ed2e41886b3b9d204ecb778c0162644600460009054906101000a900473ffffffffffffffffffffffffffffffffffffffff16604051808273ffffffffffffffffffffffffffffffffffffffff16815260200191505060405180910390a1565b60008054906101000a900473ffffffffffffffffffffffffffffffffffffffff1673ffffffffffffffffffffffffffffffffffffffff163373ffffffffffffffffffffffffffffffffffffffff16146107d3576040517f08c379a000000000000000000000000000000000000000000000000000000000815260040180806020018281038252602381526020018061113c6023913960400191505060405180910390fd5b600160028054905011610831576040517f08c379a000000000000000000000000000000000000000000000000000000000815260040180806020018281038252602b815260200180611184602b913960400191505060405180910390fd5b6001600460146101000a81548160ff0219169083600281111561085057fe5b02179055507fc475c26aa25ed8e85a7faa790e5f63b5d7ee1025f12821f4c9bfddd36ab4d11260405160405180910390a1565b600360003373ffffffffffffffffffffffffffffffffffffffff1673ffffffffffffffffffffffffffffffffffffffff16815260200190815260200160002060009054906101000a900460ff1615610943576040517f08c379a00000000000000000000000000000000000000000000000000000000081526004018080602001828103825260198152602001807f416464726573732068617320616c726561647920766f7465640000000000000081525060200191505060405180910390fd5b60065442106109ba576040517f08c379a000000000000000000000000000000000000000000000000000000000815260040180806020018281038252601a8152602001807f456c656374696f6e207374696c6c20696e2070726f677265737300000000000081525060200191505060405180910390fd5b600160028111156109c757fe5b600460149054906101000a900460ff1660028111156109e257fe5b14610a38576040517f08c379a000000000000000000000000000000000000000000000000000000000815260040180806020018281038252602581526020018061115f6025913960400191505060405180910390fd5b60018060008373ffffffffffffffffffffffffffffffffffffffff1673ffffffffffffffffffffffffffffffffffffffff1681526020019081526020016000206000828254019250508190555060006003905060018160003373ffffffffffffffffffffffffffffffffffffffff1673ffffffffffffffffffffffffffffffffffffffff16815260200190815260200160002060006101000a81548160ff0219169083151502179055507f86de0aca069f1a6dc2be8e20dc653c27a4677e78c233e85a753f2a95d807c29d82600160008573ffffffffffffffffffffffffffffffffffffffff1673ffffffffffffffffffffffffffffffffffffffff16815260200190815260200160002054604051808373ffffffffffffffffffffffffffffffffffffffff1681526020018281526020019250505060405180910390a15050565b60055481565b60008054906101000a900473ffffffffffffffffffffffffffffffffffffffff1681565b6000600654421015905090565b60016020528060005260406000206000915090505481565b600460009054906101000a900473ffffffffffffffffffffffffffffffffffffffff1681565b60006002811115610bfc57fe5b600460149054906101000a900460ff166002811115610c1757fe5b14610c2157600080fd5b60008054906101000a900473ffffffffffffffffffffffffffffffffffffffff1673ffffffffffffffffffffffffffffffffffffffff163373ffffffffffffffffffffffffffffffffffffffff1614610cc5576040517f08c379a000000000000000000000000000000000000000000000000000000000815260040180806020018281038252602381526020018061113c6023913960400191505060405180910390fd5b60008054906101000a900473ffffffffffffffffffffffffffffffffffffffff1673ffffffffffffffffffffffffffffffffffffffff168173ffffffffffffffffffffffffffffffffffffffff161415610d87576040517f08c379a000000000000000000000000000000000000000000000000000000000815260040180806020018281038252601a8152602001807f4f776e65722063616e6e6f74206e6f6d696e6174652073656c6600000000000081525060200191505060405180910390fd5b6000600160008373ffffffffffffffffffffffffffffffffffffffff1673ffffffffffffffffffffffffffffffffffffffff168152602001908152602001600020819055506002819080600181540180825580915050600190039060005260206000200160009091909190916101000a81548173ffffffffffffffffffffffffffffffffffffffff021916908373ffffffffffffffffffffffffffffffffffffffff1602179055507f42c310717a0e686ac2b6fac71a00ab4cea3895f9935f256caa0c7faf1dd8815781604051808273ffffffffffffffffffffffffffffffffffffffff16815260200191505060405180910390a150565b60008054906101000a900473ffffffffffffffffffffffffffffffffffffffff1673ffffffffffffffffffffffffffffffffffffffff163373ffffffffffffffffffffffffffffffffffffffff1614610f23576040517f08c379a000000000000000000000000000000000000000000000000000000000815260040180806020018281038252602381526020018061113c6023913960400191505060405180910390fd5b806000806101000a81548173ffffffffffffffffffffffffffffffffffffffff021916908373ffffffffffffffffffffffffffffffffffffffff16021790555050565b6000600654421015610fe0576040517f08c379a00000000000000000000000000000000000000000000000000000000081526004018080602001828103825260168152602001807f456c656374696f6e20686173206e6f7420656e6465640000000000000000000081525060200191505060405180910390fd5b60008060005b6002805490508110156111325781600160006002848154811061100557fe5b9060005260206000200160009054906101000a900473ffffffffffffffffffffffffffffffffffffffff1673ffffffffffffffffffffffffffffffffffffffff1673ffffffffffffffffffffffffffffffffffffffff16815260200190815260200160002054111561112557600160006002838154811061108257fe5b9060005260206000200160009054906101000a900473ffffffffffffffffffffffffffffffffffffffff1673ffffffffffffffffffffffffffffffffffffffff1673ffffffffffffffffffffffffffffffffffffffff168152602001908152602001600020549150600281815481106110f757fe5b9060005260206000200160009054906101000a900473ffffffffffffffffffffffffffffffffffffffff1692505b8080600101915050610fe6565b5081925050509056fe4f6e6c7920746865206f776e6572206d617920657865637574652066756e6374696f6e456c656374696f6e2069732063757272656e746c79206e6f7420696e2070726f6772657373416e20656c656374696f6e206d7573742068617665206174206c6561737420322063616e64696461746573a2646970667358221220bdcd740827a40b7ea1b557e278631882edcd1cfdf34732f225f0599330bee26464736f6c63430007040033",
  "immutableReferences": {},
  "source": "pragma solidity >=0.7.0 <0.8.0;\n\ncontract Election {\n    address public owner;\n    mapping(address => uint256) public votes;\n    address[] public candidates;\n    mapping(address => bool) public electionParticipants;\n    address public winner;\n    ElectionState public electionState;\n    bytes32 public electionName;\n    uint256 public endTimeInEpochS;\n\n    event ElectionStarted();\n    event ElectionEnded(address winner);\n    event VoteAdded(address candidate, uint256 voteCount);\n    event CandidateNominated(address candidate);\n\n    enum ElectionState {NOT_STARTED, IN_PROGRESS, ENDED}\n\n    modifier isOwner() {\n        require(msg.sender == owner, \"Only the owner may execute function\");\n        _;\n    }\n\n    modifier notOwner(address a) {\n        require(a != owner, \"Owner cannot execute function\");\n        _;\n    }\n\n    modifier hasElectionNotStarted() {\n        require(electionState == ElectionState.NOT_STARTED);\n        _;\n    }\n\n    modifier hasNotVoted {\n        require(!electionParticipants[msg.sender], \"Address has already voted\");\n        _;\n    }\n\n    modifier hasNotEnded {\n        require(\n            block.timestamp < endTimeInEpochS,\n            \"Election still in progress\"\n        );\n        _;\n    }\n\n    modifier hasEnded {\n        require(block.timestamp >= endTimeInEpochS, \"Election has not ended\");\n        _;\n    }\n\n    modifier isInProgress {\n        require(electionState == ElectionState.IN_PROGRESS, \"Election is currently not in progress\");\n        _;\n    }\n\n    constructor(bytes32 _electionName, uint256 _endTimeInEpochS) {\n        require(\n            block.timestamp < _endTimeInEpochS,\n            \"Election must end in the future\"\n        );\n        electionState = ElectionState.NOT_STARTED;\n        owner = msg.sender;\n        electionName = _electionName;\n        endTimeInEpochS = _endTimeInEpochS;\n    }\n\n    function transferOwnership(address newOwner) external isOwner {\n        owner = newOwner;\n    }\n\n    function nominateCandidate(address _candidate)\n        external\n        hasElectionNotStarted\n        isOwner\n    {\n        require(_candidate != owner, \"Owner cannot nominate self\");\n        votes[_candidate] = 0;\n        candidates.push(_candidate);\n        emit CandidateNominated(_candidate);\n    }\n\n    function startElection() external isOwner {\n        require(\n            candidates.length > 1,\n            \"An election must have at least 2 candidates\"\n        );\n        electionState = ElectionState.IN_PROGRESS;\n        emit ElectionStarted();\n    }\n\n    function endElection() external isOwner hasEnded {\n        electionState = ElectionState.ENDED;\n        winner = getWinner();\n        emit ElectionEnded(winner);\n    }\n\n    function hasElectionEnded() external view returns (bool) {\n        return block.timestamp >= endTimeInEpochS;\n    }\n\n    function getWinner() private view hasEnded returns (address) {\n        address winningAddress;\n        uint256 largestVoteCount;\n        for (uint256 i = 0; i < candidates.length; i++) {\n            if (votes[candidates[i]] > largestVoteCount) {\n                largestVoteCount = votes[candidates[i]];\n                winningAddress = candidates[i];\n            }\n        }\n        return winningAddress;\n    }\n\n    function vote(address _candidate) external hasNotVoted hasNotEnded isInProgress {\n        votes[_candidate] += 1;\n        mapping(address => bool) storage participants = electionParticipants;\n        participants[msg.sender] = true;\n        emit VoteAdded(_candidate, votes[_candidate]);\n    }\n\n    function getCandidates() external view returns(address[] memory) {\n        return candidates;\n    }\n}\n",
  "sourcePath": "/Users/cds95/Documents/voting-dapp/contracts/Election.sol",
  "compiler": {
    "name": "solc",
    "version": "0.7.4+commit.3f05b770.Emscripten.clang"
  },
  "schemaVersion": "3.3.2",
  "updatedAt": "2021-01-30T22:15:35.349Z",
  "networkType": "ethereum",
  "devdoc": {
    "kind": "dev",
    "methods": {},
    "version": 1
  },
  "userdoc": {
    "kind": "user",
    "methods": {},
    "version": 1
  }
}